:0400000063EF00F0BA
:0C000800FACF1BF0FBCF1CF0C1EF06F09C
:10001800D8CF01F0E8CF02F0E0CF03F0FACF04F038
:10002800FBCF05F0E9CF06F0EACF07F0E1CF08F003
:10003800E2CF09F0D9CF0AF0DACF0BF0F3CF0CF00A
:10004800F4CF0DF0F6CF0EF0F7CF0FF0F8CF10F099
:10005800F5CF11F0A4A207D0000169CF70F000011C
:100068000001716BA492A4A407D0000167CF72F0BD
:1000780000010001736BA49411C0F5FF10C0F8FFD4
:100088000FC0F7FF0EC0F6FF0DC0F4FF0CC0F3FF62
:100098000BC0DAFF0AC0D9FF09C0E2FF08C0E1FFC0
:1000A80007C0EAFF06C0E9FF05C0FBFF04C0FAFF6E
:1000B80003C0E0FF02C0E8FF01C0D8FF1000D6EF80
:0200C8000EF038
:100300000001000A006400E803102743312025643F
:100310002043322025642020202020202000535418
:10032000525547474C4520424F54207631005345A3
:1003300041524348494E4720202020200044495341
:1003400041524D20434F44453A2000424F4D4220F8
:100350004C4F43415445440072656164206572729C
:100360006F722E00524556455253494E4700435333
:100370000000720ED36ED3A4FED758EC0FF0B1EC90
:100380000FF069EC0FF0B6EC0FF08FEC0FF076EC9D
:100390000FF039EC0AF0D3EC09F07CEC08F09AECA1
:1003A0000FF0010EAEEC0EF0030E00010001966F8F
:1003B0001E0E00010001956FBDEC0BF0000E000158
:1003C0000001986F010E0001976FEAEC0DF083ECCD
:1003D0000FF0EED1010EAEEC0EF0000100017EC078
:1003E0009FF000010001A06B030E00010001A26F4D
:1003F0000B0E00010001A16F70C0A3F071C0A4F04A
:1004000072C0A5F073C0A6F0C1EC05F000010001B8
:100410007EC095F000010001966BBDEC0BF094D00E
:100420000001000E00010001AA6F00017F0E000113
:100430000001A96F0001000E00010001AC6F000176
:10044000880E00010001AB6F45EC0DF000010001CA
:100450007C057D11D8B412D000010001744B752BBE
:100460000101000E000100017425D96E0101010E89
:10047000000100017521DA6E040EDF6E000E00012E
:100480000001926F000E0001916FF8EC0BF0E80E86
:100490000001B36F2A0EE82EFED7B32FFCD7000E53
:1004A00000010001926F0F0E0001916FF8EC0BF04C
:1004B000020EAEEC0EF0030E00010001966F2E0E40
:1004C00000010001956FBDEC0BF0000100017051BF
:1004D000C30A7111D8A438D0000100017251C30AB7
:1004E0007311D8A431D0000E000100017D6F000E01
:1004F00000017C6F000E000100017B6F010E000106
:100500007A6F020EAEEC0EF0030E00010001966F42
:100510004B0E00010001956FBDEC0BF00001000EC9
:1005200000010001AA6F00017F0E00010001A96F08
:100530000001000E00010001AC6F0001880E0001F7
:100540000001AB6F82EC0EF0000100017A057B1117
:10055000D8A466D7000100017051C30A7111D8A454
:1005600038D0000100017251C30A7311D8A431D0F0
:100570000001000E00010001AA6F00017F0E0001C2
:100580000001A96F0001000E00010001AC6F000125
:10059000880E00010001AB6FB3EC0DF0000100010B
:1005A000744B752B0101000E000100017425D96EFA
:1005B0000101010E000100017521DA6E030EDF6EEC
:1005C000E80E0001B36F2A0EE82EFED7B32FFCD73A
:1005D000EFD000010001705100010001725D0001C7
:1005E00000017151000100017359D8B040D00001E1
:1005F000000E00010001AA6F00017F0E0001000142
:10060000A96F0001000E00010001AC6F0001880E0F
:1006100000010001AB6F69EC0CF000010001744BAC
:10062000752B0101000E000100017425D96E010136
:10063000010E000100017521DA6E010EDF6EE80E79
:100640000001B36F2A0EE82EFED7B32FFCD7E80EB9
:100650000001B36F2A0EE82EFED7B32FFCD7E80EA9
:100660000001B36F2A0EE82EFED7B32FFCD700018E
:100670000001725100010001705D00010001735121
:10068000000100017159D8B030D00001000E000106
:100690000001AA6F00017F0E00010001A96F000197
:1006A000000E00010001AC6F0001880E0001000186
:1006B000AB6FD7EC0CF000010001744B752B0101FE
:1006C000000E000100017425D96E0101010E000128
:1006D00000017521DA6E020EDF6EE80E0001B36FC5
:1006E0002A0EE82EFED7B32FFCD70001000171516E
:1006F00000010001731906E10001000170510001C1
:1007000000017219D8A43ED0000100017051C30A43
:100710007111D8B437D0000100017251C30A7311AE
:10072000D8B430D00001000E00010001AA6F000112
:100730007F0E00010001A96F0001000E0001000101
:10074000AC6F0001880E00010001AB6FB3EC0DF03F
:1007500000010001744B752B0101000E0001000126
:100760007425D96E0101010E000100017521DA6EB8
:10077000030EDF6EE80E0001B36F2A0EE82EFED7DF
:10078000B32FFCD70001000171517011D8A410D013
:10079000060E00010001725D000E00017359D8B011
:1007A00007D0000E000100017B6F000E00017A6F80
:1007B0000001000178057911D8A40CD600010001D0
:1007C00078057911D8A463EF00F0A392A3949D9AC1
:1007D0000001000177517611D8A411D083EC0FF0FD
:1007E000000E00010001776F010E0001766F0D0E03
:1007F0000001B36FFC0EE82EFED7B32FFCD7010E1D
:10080000AEEC0EF0030E00010001966F640E0001C5
:100810000001956FBDEC0BF00001000E000100011E
:10082000AA6F00017F0E00010001A96F0001000EF8
:1008300000010001AC6F0001880E00010001AB6FE8
:1008400082EC0EF0000E00010001B56FFF0E0001FA
:10085000B46FE5D00101000E00010001B425D96E8E
:100860000101010E00010001B521DA6EDF50000127
:10087000B36F0001B35100010001B86F0001B96B03
:1008800000010001B805B911D8A428D00001000E5C
:1008900000010001AA6F00017F0E00010001A96F95
:1008A0000001000E00010001AC6F0001880E000184
:1008B0000001AB6FA0EC0CF0E80E0001B36F2A0E44
:1008C000E82EFED7B32FFCD7000E00010001926F77
:1008D000010E0001916FF8EC0BF09CD000010001BB
:1008E000B851020AB911D8A438D00001000E000195
:1008F0000001AA6F00017F0E00010001A96F000135
:10090000000E00010001AC6F0001880E0001000123
:10091000AB6F32EC0CF0E80E0001B36F2A0EE82E3C
:10092000FED7B32FFCD7E80E0001B36F2A0EE82ED6
:10093000FED7B32FFCD7E80E0001B36F2A0EE82EC6
:10094000FED7B32FFCD7000E00010001926F020EFC
:100950000001916FF8EC0BF05DD000010001B8517F
:10096000030AB911D8A428D00001000E000100012B
:10097000AA6F00017F0E00010001A96F0001000EA7
:1009800000010001AC6F0001880E00010001AB6F97
:100990007CEC0DF0E80E0001B36F2A0EE82EFED7B6
:1009A000B32FFCD7000E00010001926F030E00016F
:1009B000916FF8EC0BF02ED000010001B851040A41
:1009C000B911D8A427D00001000E00010001AA6FC0
:1009D00000017F0E00010001A96F0001000E00015F
:1009E0000001AC6F0001880E00010001AB6F0EEC3E
:1009F0000DF0E80E0001B36F2A0EE82EFED7B32FDC
:100A0000FCD7000E00010001926F040E0001916FEF
:100A1000F8EC0BF000010001B407D8A0B507000105
:100A20000001B551B411D8A415D7000100017751C8
:100A30007611D8A411D083EC0FF0000E0001000154
:100A4000776F010E0001766F0D0E0001B36FFC0E83
:100A5000E82EFED7B32FFCD7010EAEEC0EF0030E3E
:100A600000010001966F3D0E00010001956FBDEC85
:100A70000BF0020EAEEC0EF0000E00010001B76F9D
:100A8000010E0001B66F00010001B751800A800F0E
:100A90000B0ED8B4B65DD8B01CD00001B36F010EF8
:100AA00000010001936F0001B3510001600E0001CD
:100AB0000001B625D96E0001000E00010001B7212A
:100AC000DA6EDF5014EC0FF000010001B64BB72BCB
:100AD000DAD7030E00010001966F1C0E0001000121
:100AE000956FBDEC0BF00001B36F010E000100012A
:100AF000936F0001B351010E14EC0FF0030E0001CF
:100B00000001966F6E0E00010001956FBDEC0BF0B9
:100B10000001000E00010001AA6F00017F0E00011C
:100B20000001A96F0001000E00010001AC6F00017F
:100B3000880E00010001AB6F82EC0EF0000E000188
:100B40000001926F0F0E0001916FF8EC0BF0E80EB0
:100B50000001B36F2A0EE82EFED7B32FFCD7000E8C
:100B600000010001926F000E0001916FF8EC0BF094
:100B7000E80E0001B36F2A0EE82EFED7B32FFCD784
:100B8000DDD70001000E00010001AA6F0001A30ED5
:100B900000010001A96FDDD000010001B251250A5A
:100BA000D8B40CD09FC0D9FFA0C0DAFF0001B2C0FA
:100BB000DFFF000100019F4BA02BCBD00001A76FEE
:100BC000000E00010001AB6F0001A7510001A1C0A0
:100BD000F6FF0001A2C0F7FF00010001A14BA22B0C
:100BE00008000001F5CFB2F00001B251000AD8B4FC
:100BF000C1D0640AD8B403D00D0AD8A4AAD0A9C021
:100C0000D9FFAAC0DAFF0001DECFADF00001DDCFD1
:100C1000AEF0020E00010001A927000E0001AA2378
:100C200000010001AE51800AF36E800EF35C000EED
:100C3000D8B4AD5DD8B00BD0030E00010001AB13EA
:100C400000010001AD6D0001AE1FD8B0AE2B000158
:100C5000A76F010E00010001B26F0001A751000152
:100C60000001B251050AD8B420D000010001B251F0
:100C7000020D010EF324F66E030EF420F76E090048
:100C8000F5CFA7F00900F5CFA8F00001A7510001AA
:100C90000001AD5D0001A85100010001AE59D8A0CE
:100CA00004D000010001B22BDAD7ABC0A7F0030ECD
:100CB0000001A717D8B40AD09FC0D9FFA0C0DAFF9F
:100CC0002D0EDF6E000100019F4BA02BB2C0ACF0D7
:100CD00039D000010001AC51020D010EF324F66E73
:100CE000030EF420F76E09000001F5CF93F00A001F
:100CF0000001F5CF94F0ADC091F0AEC092F098EC49
:100D00000AF0000191C099F0000192C09AF0000E23
:100D1000000100019C6F0A0E00019B6F3BEC0BF081
:100D2000000100019951300F00010001B26F9FC016
:100D3000D9FFA0C0DAFF0001B2C0DFFF000100014F
:100D40009F4BA02B00010001AC070001AC29D8A4E7
:100D5000C0D70001A1C0F6FF0001A2C0F7FF00014B
:100D60000001A14BA22B08000001F5CFB2F0000159
:100D7000B26712D79FC0D9FFA0C0DAFF000EDF6EA6
:100D80001200E9CF1DF0EACF1EF0E1CF1FF0E2CF55
:100D900020F0D9CF21F0DACF22F0F3CF23F0F4CF37
:100DA00024F0F6CF25F0F7CF26F0F8CF27F0F5CFD7
:100DB00028F09EAAAAD0000E316E010E306EBBEC58
:100DC0000FF000010001606F000100016051020A94
:100DD000D8A49AD00001600E3024D96E0001000E14
:100DE0003120DA6EBBEC0FF00CD0304A312A000112
:100DF000600E3024D96E0001000E3120DA6EBBEC9B
:100E00000FF0DF6E0001600E3024D96E0001000E7D
:100E10003120DA6E030EDF62E8D7000E376E010E66
:100E2000366E3750800A800F0B0ED8B4365CD8B0BF
:100E300034D0000E336E000E326E3350800A800FB5
:100E4000060ED8B4325CD8B025D0290E3224D96E23
:100E5000000E3320DA6E010E3624196E000E372094
:100E60001A6E0001600E1924E16E0001000E1A20B6
:100E7000E26EE750126E0001600E3624E16E000152
:100E8000000E3720E26EE75044EC0FF0DF6E324A7E
:100E9000332AD3D7364A372AC4D76CC012F00001A0
:100EA00000016B5144EC0FF02E6E2A502B182F6E60
:100EB000000E356E030E346E3550800A800F060E1C
:100EC000D8B4345CD8B00BD0290E3424D96E000EBF
:100ED0003520DA6EDF502F1A344A352AEDD72F50DD
:100EE0002E6209D0949E000E00010001796F010E60
:100EF0000001786F09D0010EF8EC0EF0030E176EAA
:100F0000580E166E51EC0EF09E9A28C0F5FF27C0C1
:100F1000F8FF26C0F7FF25C0F6FF24C0F4FF23C06A
:100F2000F3FF22C0DAFF21C0D9FF20C0E2FF1FC0BB
:100F3000E1FF1EC0EAFF1DC0E9FF1CC0FBFF1BC094
:100F4000FAFF1100000120EE07F00001A051D926A0
:100F50000001A151DA220001DECF93F00001DDCFC4
:100F600094F0A0C0D9FFA1C0DAFFDF500001A26F4A
:100F70000001A25100010001916F0001926B20EC71
:100F80000EF0000191C097F0000192C098F0000EA1
:100F9000000100019A6F640E0001996F38EC09F0AE
:100FA000000197C0A7F0000198C0A8F0000120EE52
:100FB00001F00001A051D9260001A151DA22DF5031
:100FC000D8B441D0000120EE07F00001A051D9268D
:100FD0000001A151DA22DECFA2F0DDCFA3F00001A3
:100FE000A7C0A4F00001A8C0A5F00001A41FA51F80
:100FF000A44BA52B0001A2510001A4250001000172
:10100000A76F0001A3510001A5210001A86F0001F5
:1010100020EE06F00001A051D9260001A151DA22EC
:10102000DF500001A26F010E0001A36F0001A22B8F
:1010300003D00001D890A3370001A22FFAD70001F6
:10104000A3518A101CD0000120EE06F00001A0512F
:10105000D9260001A151DA22DF500001A26F010E52
:101060000001A36F0001A22B03D00001D890A33789
:101070000001A22FFAD70001A351FF0A8A148A6E39
:10108000000120EE02F00001A051D9260001A1517B
:10109000DA22DECFA2F0DDCFA3F0A2C0D9FFA3C039
:1010A000DAFF00010001A745E846FC0BDF6E0001F6
:1010B00020EE04F00001A051D9260001A151DA224E
:1010C000DECFA2F0DDCFA3F0A2C0D9FFA3C0DAFF2C
:1010D0000001A7C0A4F00001A8C0A5F0060E000101
:1010E000A66F0001A535A533A4330001A62FF9D7BB
:1010F0000001A451DF6E12000001956F000E000187
:101100000001936F00019551400E14EC0FF00001A7
:10111000956F010E00010001936F00019551020EC1
:1011200014EC0FF00001956F010E00010001936FA8
:1011300000019551050E14EC0FF00001956F010EA2
:1011400000010001936F00019551040E14EC0FF0A3
:101150000001956F010E00010001936F0001955190
:101160000E0E14EC0FF00001956F010E000100014E
:10117000936F000195511F0E14EC0FF00001956F55
:10118000010E00010001936F000195511F0E14EC38
:101190000FF00001956F010E00010001936F000137
:1011A00095511F0E14EC0FF00001956F010E000118
:1011B0000001936F000195510E0E14EC0FF0000129
:1011C000956F010E00010001936F00019551020E11
:1011D00014EC0FF00001956F010E00010001936FF8
:1011E00000019551050E14EC0FF00001956F010EF2
:1011F00000010001936F00019551040E14EC0FF0F3
:101200000001956F010E00010001936F00019551DF
:101210000E0E14EC0FF00001956F010E000100019D
:10122000936F000195511F0E14EC0FF00001956FA4
:10123000010E00010001936F000195511F0E14EC87
:101240000FF00001956F010E00010001936F000186
:1012500095511F0E14EC0FF00001956F010E000167
:101260000001936F000195510E0E14EC0FF0120067
:1012700000019B6F000E000100019D6F00019B515A
:10128000000100019A51800AF36E800EF35C000E9B
:10129000D8B4995DD8B00FD000010001996D00015C
:1012A0009A1FD8B09A2B00019B6F010E000100011C
:1012B0009D6F00019B51000100019851800AF36E5F
:1012C000800EF35C000ED8B4975DD8B00BD000014F
:1012D0000001976D0001981FD8B0982B010E0001F6
:1012E00000019D1B000E000100019F6F000E000118
:1012F0009E6F000100019A519911D8B443D00001AA
:101300009B6F010E000100019C6F00019B5109D0F1
:10131000000100010001D89099379A3700010001BF
:101320009C2B000100019AAFF3D7000100010001DE
:10133000D8909E379F3700010001995100010001AC
:10134000975D000100019A51000100019859D8A051
:101350000FD000010001995100010001975F0001C9
:1013600000019A5100010001985B000100019E817B
:10137000000100010001D8909A3399330001000167
:101380009C2FD3D7000100019D51D8B407D0000194
:1013900000019E6D00019F1FD8B09F2B9EC097F04B
:1013A0009FC098F01200270E0001956FF50EE82EF1
:1013B000FED7952FFCD700F0030EEDEC0AF00D0ED2
:1013C0000001956FFC0EE82EFED7952FFCD7030E7B
:1013D000EDEC0AF0850EE82EFED700F0030EEDECE2
:1013E0000AF0210EE82EFED700F0020EEDEC0AF016
:1013F0000001956F000E00010001936F00019551EF
:10140000280E14EC0FF00001956F000E0001000192
:10141000936F00019551080E14EC0FF00001956FC9
:10142000000E00010001936F00019551010E14ECB4
:101430000FF0060E0001956F300EE82EFED7952FA7
:10144000FCD700D00001956F000E00010001936FE2
:1014500000019551060E14EC0FF00001956F000E7F
:1014600000010001936F000195510C0E14EC0FF078
:1014700012000001916F000E000100017F6F00015A
:1014800091510001916F000E00010001806F000179
:1014900091510F0E00010001826F790E00010001D1
:1014A000816F0F0E00010001846F780E00010001B2
:1014B000836F0001916F000E00010001856F000134
:1014C0009151000E00010001876FC80E0001866F68
:1014D0000001916F000E00010001886F0001915121
:1014E0000001916F000E00010001896F0001915110
:1014F0000F0E000100018B6F770E000100018A6F53
:101500000F0E000100018D6F760E000100018C6F3F
:101510000001916F020E000100018E6F00019151D8
:10152000000E00010001906FC80E00018F6F1200C5
:10153000000E00010001976F000E0001966F000180
:10154000000194519311D8B443D00001956F010E5E
:1015500000010001986F0001955109D000010001C0
:101560000001D8909337943700010001982B0001B7
:10157000000194AFF3D7000100010001D890963725
:10158000973700010001935100010001915D0001B6
:1015900000019451000100019259D8A00FD0000120
:1015A0000001935100010001915F0001000194517D
:1015B00000010001925B0001000196810001000121
:1015C0000001D8909433933300010001982FD3D7B2
:1015D00096C091F097C092F01200E8CF92F092C0BE
:1015E00091F0010E00019117000191478B5000010D
:1015F0009119FD0B91198B6E92C091F00001D8905A
:101600009133010E000191170001914791478B50D2
:1016100000019119FB0B91198B6E92C091F00001A2
:10162000D89091330001D8909133010E00019117A9
:101630008C5000019119FE0B91198C6E92C091F0A3
:101640000001D89091330001D89091330001D890D7
:101650009133010E00019117000191478C50000158
:101660009119FD0B91198C6EA3EC0FF0030EE82E6F
:10167000FED700F01200000100019C519B11D8B46C
:101680003AD000019D6F010E000100019E6F000124
:101690009D5109D0000100010001D8909B379C3773
:1016A000000100019E2B000100019CAFF3D7000157
:1016B00000019B5100010001995D000100019C5156
:1016C000000100019A59D8A00CD0000100019B51E3
:1016D00000010001995F000100019C51000100011F
:1016E0009A5B000100010001D8909C339B330001FC
:1016F00000019E2FDCD799C099F09AC09AF0120091
:10170000E8CF13F013C012F0010E121612468B50E0
:101710001218FD0B12188B6E13C012F0D8901232F3
:10172000010E1216124612468B501218FB0B12189D
:101730008B6E13C012F0D8901232D8901232010E74
:1017400012168C501218FE0B12188C6E13C012F069
:10175000D8901232D8901232D8901232010E12164E
:1017600012468C501218FD0B12188C6EAAEC0FF05A
:10177000030EE82EFED700F0120024D00001976F70
:10178000010E00010001936F00019751000195C007
:10179000F6FF000196C0F7FFF86A020EF76403D067
:1017A0000800F55005D0F6CFE9FFF7CFEAFFEF507C
:1017B00014EC0FF000010001954B962B210EE82E42
:1017C000FED700F0000195C0F6FF000196C0F7FFBC
:1017D000F86A020EF76403D00800F55005D0F6CF82
:1017E000E9FFF7CFEAFFEF500009D8B41200C6D7DF
:1017F0008BCF93F00F0E0001931791C094F03C0E25
:10180000000194170001D89094370001D8909435C6
:10181000000193118B6E8CCF93F0C30E00019317D0
:10182000000191C094F0000192C095F0000195353F
:10183000953394330001953595339433300E000180
:10184000941791C096F0030E000196170001D890EE
:1018500096370001D890963500019411000193113C
:101860008C6E1200000120EE01F00001A951D92672
:101870000001AA51DA22010EDF6E000120EE01F014
:101880000001AB51D9260001AC51DA22010EDF6E06
:10189000ABC0D9FFACC0DAFF460EDF6EA9C0D9FFDE
:1018A000AAC0DAFF550EDF6E00010001ACC0A1F046
:1018B00000010001ABC0A0F0A2EC07F000010001A4
:1018C000AAC0A1F000010001A9C0A0F0A2EC07F09D
:1018D0001200000120EE01F00001A951D9260001FB
:1018E000AA51DA22000EDF6E000120EE01F00001A5
:1018F000AB51D9260001AC51DA22000EDF6EABC02D
:10190000D9FFACC0DAFF4B0EDF6EA9C0D9FFAAC069
:10191000DAFF2D0EDF6E00010001ACC0A1F0000166
:101920000001ABC0A0F0A2EC07F000010001AAC0CA
:10193000A1F000010001A9C0A0F0A2EC07F0120084
:10194000000120EE01F00001A951D9260001AA51A1
:10195000DA22010EDF6E000120EE01F00001AB5132
:10196000D9260001AC51DA22010EDF6EABC0D9FFDF
:10197000ACC0DAFF5A0EDF6EA9C0D9FFAAC0DAFFE9
:10198000460EDF6E00010001AAC0A1F000010001B7
:10199000A9C0A0F0A2EC07F000010001ACC0A1F0CA
:1019A00000010001ABC0A0F0A2EC07F012000001A2
:1019B00020EE01F00001A951D9260001AA51DA2236
:1019C000000EDF6E000120EE01F00001AB51D926C0
:1019D0000001AC51DA22000EDF6EABC0D9FFACC003
:1019E000DAFF2D0EDF6EA9C0D9FFAAC0DAFF550EAF
:1019F000DF6E00010001AAC0A1F000010001A9C032
:101A0000A0F0A2EC07F000010001ACC0A1F00001C1
:101A10000001ABC0A0F0A2EC07F01200000120EE24
:101A200001F00001A951D9260001AA51DA22000EC5
:101A3000DF6E000120EE01F00001AB51D92600015C
:101A4000AC51DA22010EDF6EABC0D9FFACC0DAFFB9
:101A5000400EDF6EA9C0D9FFAAC0DAFF450EDF6EC7
:101A600000010001ACC0A1F000010001ABC0A0F07A
:101A7000A2EC07F000010001AAC0A1F000010001E2
:101A8000A9C0A0F0A2EC07F01200000120EE01F0C6
:101A90000001A951D9260001AA51DA22010EDF6EF8
:101AA000000120EE01F00001AB51D9260001AC513C
:101AB000DA22000EDF6EABC0D9FFACC0DAFF480EF1
:101AC000DF6EA9C0D9FFAAC0DAFF450EDF6E0001A4
:101AD0000001AAC0A1F000010001A9C0A0F0A2EC81
:101AE00007F000010001ACC0A1F000010001ABC093
:101AF000A0F0A2EC07F01200000120EE01F00001BE
:101B0000A951D9260001AA51DA22010EDF6E000187
:101B100020EE01F00001AB51D9260001AC51DA22D0
:101B2000010EDF6EA9C0D9FFAAC0DAFF620EDF6E18
:101B3000ABC0D9FFACC0DAFF5F0EDF6E0001000161
:101B4000AAC0A1F000010001A9C0A0F0A2EC07F01A
:101B500000010001ACC0A1F000010001ABC0A0F089
:101B6000A2EC07F01200000120EE01F00001A951E3
:101B7000D9260001AA51DA22000EDF6E000120EE04
:101B800001F00001AB51D9260001AC51DA22000E60
:101B9000DF6EA9C0D9FFAAC0DAFF5D0EDF6EABC051
:101BA000D9FFACC0DAFF5F0EDF6E00010001AAC0F2
:101BB000A1F000010001A9C0A0F0A2EC07F0000113
:101BC0000001ACC0A1F000010001ABC0A0F0A2EC8C
:101BD00007F01200000E000100019B6F000E0001D3
:101BE0009A6F0CD0820E0001996FDE0EE82EFED7A0
:101BF000992FFCD7000100019A4B9B2B97C091F0C5
:101C000098C092F0000E00010001946F140E0001C4
:101C1000936F20EC0EF0000100019251800A000148
:101C2000996F000100019A5100010001915D0001CE
:101C300000019B51800A00019959D8A01200D2D707
:101C4000000100019151000100019303F3CF95F0D1
:101C5000F4CF96F0000100019151000100019403BE
:101C6000F3CFF4FFF36AF350000100019527F4501D
:101C700000010001962300010001925100010001C2
:101C80009303F3CFF4FFF36AF350000100019527AB
:101C9000F45000010001962395C091F096C092F097
:101CA00012001CD0186E010E146E185016C0F6FFEC
:101CB00017C0F7FFF86A020EF76403D00800F5506A
:101CC00005D0F6CFE9FFF7CFEAFFEF502FEC0FF08A
:101CD000164A172A210EE82EFED700F016C0F6FF8E
:101CE00017C0F7FFF86A020EF76403D00800F5503A
:101CF00005D0F6CFE9FFF7CFEAFFEF500009D8B4DF
:101D00001200D0D723D0A9C0D9FFAAC0DAFFABC038
:101D1000E1FFACC0E2FFDFCFE7FF00010001AAC096
:101D2000A1F000010001A9C0A0F0A2EC07F00001A1
:101D30000001ACC0A1F000010001ABC0A0F0A2EC1A
:101D400007F0A9C0D9FFAAC0DAFFDF06A9C0D9FFF2
:101D5000AAC0DAFFDF50D8B41200D5D7E8CF96F08A
:101D6000000100019605D8A40BD00001956F000E6C
:101D700000010001936F00019551800E14EC0FF0EB
:101D8000000100019651020AD8A40BD00001956F02
:101D9000000E00010001936F00019551C00E14EC7C
:101DA0000FF0210EE82EFED700F0120001EE00F039
:101DB00010EEFFF0EE6AE550E150FCE1E250FAE18E
:101DC00000EE60F0310EEE6AE806FDE13A6A7E0E42
:101DD000F66E1F0EF76E000EF86E0900F5CF38F0A4
:101DE0000900F5CF39F0000EF86E0001B9EF01F0EF
:101DF000E8CF17F01704D8A407D0166E000E146EA3
:101E00001650800E2FEC0FF01750020AD8A407D0FE
:101E1000166E000E146E1650C00E2FEC0FF0210E31
:101E2000E82EFED700F01200E8CF94F00001000188
:101E300093B102D0899C01D0898C000100019439B2
:101E40000F0B0F0BEDEC0AF0060EE82EFED700D0BC
:101E50000001000194510F0BEDEC0AF01200E8CFE5
:101E600015F014B002D0899C01D0898C15380F0B65
:101E70000F0B80EC0BF0060EE82EFED700D01550AD
:101E80000F0B80EC0BF01200E8CF14F0390E146445
:101E900002D0090E1426390E126402D0090E122641
:101EA00014C013F00F0E13161238F00B131012009B
:101EB000000E896E000E8A6E000E8B6E000E8C6E08
:101EC000000E926E000E936EC00E946E000E956E14
:101ED0001200010EB76EB750E70B0809B76E3B0E44
:101EE000606E000E886E000E876E1200000E7F6E10
:101EF000800E7E6E6F0E6F6E000E6E6EC70E7B6E66
:101F0000000E7A6E12000001956F000E00010001B4
:101F1000936F00019551010E14EC0FF01200D08E5A
:101F2000F28EF28CF28CA382A592A384A5949D8A52
:101F30009F8A1200CD0EAF6E000EB06EAA86AC84E2
:101F4000AB88AB8E12008B80030EE82EFED700F01C
:101F50008B9012008B80030EE82EFED700F08B9042
:101F6000120092849286B894B8961200460E636E60
:101F7000460E626E12009EAAFED7AE5012000100FD
:020000040020DA
:08000000FFFFFFFFFFFFFFFF00
:020000040030CA
:0E000000FFC80F3F3C9D85FF0FC00FE00F4073
:00000001FF
